:1000000008308A00AA2C0000FF00030E831203139D
:10001000A1000A08A0008A010408A2007708A30032
:100020007808A4007908A5007A08A6007B08A70034
:10003000831383120B1E1E288B1837288C308400E4
:10004000801E24288C1A3A28220884002308F700EE
:100050002408F8002508F9002608FA002708FB0004
:1000600020088A00210E8300FF0E7F0E09008A11EE
:100070000A123D288A110A125428891009112917D9
:10008000A91631108B108A110A1224288C1E4628BA
:100090001808A8001A08F800A81C502818121816EA
:1000A00000008A110A125528462878088316E500B0
:1000B0008312641B692864081F398316E6008312C3
:1000C00063081F3983166602031D682883126B2894
:1000D000831200306C280130F800F80803197228E8
:1000E000E416822864081F39433E8400831665089D
:1000F000800083126408013E1F39F700E030640578
:100100007704E40064138C128A110A1224286630E2
:100110008316C5004308073C031C902883129528CA
:10012000831265308316C500831207308316C3051A
:1001300044083F3C031C9E288312B2288312831676
:10014000450884000130F7004308F800031DAA2881
:100150008312AF2883120310F70DF80BAB28770832
:100160008004C5288316450884000130F700430841
:10017000F800031DBD288312C22883120310F70D57
:10018000F80BBE287708FF3A800565308316C60055
:100190000230C7004230C8008312B0113008831605
:1001A0008700831287118316C901831283164708BB
:1001B0004902031CDD288312122983128316460884
:1001C000490784000008CB00CA01831283164A083D
:1001D000073C0318ED2883120E29831283164B085F
:1001E0008039003A0319F6288312F92883128810FF
:1001F000FA28881403108316CB0D8312B01130082F
:100200008316870083128715B01130088316870084
:10021000831287118316CA0A8312E6288316C90A35
:100220008312D62883164808F70042307702031D50
:100230001B2983121D298312202908110815202942
:100240000034E501E6018316C301C401831287204F
:100250000034BF308400000803193B290630F80041
:10026000F701F70B3129F80B30297B30F700F70B3A
:100270003729800B2E29003483163F108312B110CA
:10028000FF30B2000130B300B11D5229831622089D
:100290008312B200831623088312B30083163F141F
:1002A0008312112A0030641B0130F800F808031D86
:1002B0009529640083168C12831263081F39433E0C
:1002C000840000088316C10083126308013E1F39B1
:1002D000F700E03063057704E30064081F398316F4
:1002E000C200831263081F398316420203197A2958
:1002F00083127C298312641783164108F800831245
:1003000078088316C0008C168312311583164008B6
:10031000F80083127808B300330F8F299029B114A5
:10032000B20183163F148312112A311FC4293330BE
:100330008316C000831283164008C100831242084E
:100340008316C200831283164208831203178D009E
:100350008F0183168C130C1483120C08F8000313FE
:10036000831641088400780880008312C20A42087C
:10037000F800F808031DBE293113BF293117493091
:10038000B20083163F14831283163F1CC9298312BF
:10039000032A83120030C01A0130F800F808031D48
:1003A000032A40080339F7000310F70D7708383E99
:1003B00084000008B20040080339F7000310F70D6D
:1003C0007708013E383E84000008B3004008013E33
:1003D0000339F700FC3040057704C000F700F70C44
:1003E000770C03398316C000831240080339831643
:1003F00040020319FD298312FF298312C0168316B8
:100400003F148312112AB1148316A501A60A2508E8
:100410008312B200831626088312B30083163F149A
:10042000831232088316A200831233088316A300B6
:100430003F181C2A83121F2A8312B11DFE0AB11114
:10044000003083163F180130F80083120034A912DF
:10045000311089100911E030831688008312881248
:100460008815B217B21F392A08168316081283128C
:100470003D2A0812831608128312831688128312EB
:10048000881683168812831288120310B20DB21FC9
:100490004E2A0816831608128312522A081283164F
:1004A0000812831283168812831288168316881204
:1004B000831288120310B20DB21F632A0816831626
:1004C00008128312672A08128316081283128316F1
:1004D00088128312881683168812831288120310DA
:1004E000B20DB21F782A08168316081283127C2ACE
:1004F0000812831608128312831688128312881634
:1005000083168812831288120310B20DB21F8D2A2F
:100510000816831608128312912A081283160812ED
:100520008312831688128312881683168812831208
:1005300088120310B20DB21FA22A081683160812E1
:100540008312A62A081283160812831283168812B1
:100550008312881683168812831288120310B20D34
:10056000B21FB72A0816831608128312BB2A081274
:100570008316081283128316881283128816831634
:100580008812831288120310B20DB21FCC2A0816EB
:10059000831608128312D02A0812831608128312B7
:1005A0008316881283128816831688128312881283
:1005B000B31FDF2A0816831608128312E32A0812D3
:1005C00083160812831283168812831288168316E4
:1005D0008812831288120310B30DB31FF42A081671
:1005E000831608128312F82A08128316081283123F
:1005F0008316881283128816831688128312881233
:100600000310B30DB31F092B0816831608128312AB
:100610000D2B081283160812831283168812831278
:10062000881683168812831288120310B30DB31F25
:100630001E2B0816831608128312222B081283160B
:100640000812831283168812831288168316881262
:10065000831288120310B30DB31F332B08168316B1
:1006600008128312372B081283160812831283167E
:100670008812831288168316881283128812031038
:10068000B30DB31F482B08168316081283124C2B88
:100690000812831608128312831688128312881692
:1006A00083168812831288120310B30DB31F5D2BBB
:1006B0000816831608128312612B0812831608127B
:1006C0008312831688128312881683168812831267
:1006D00088120310B30DB31F722B0816831608126D
:1006E0008312762B0812831608128312831688123F
:1006F000831288168316881283128812D0308316CC
:1007000088008312A917B11C872B0915882B89141F
:1007100000342913B0113008831687008312871123
:100720002913D030831688008312B0113008831645
:10073000870083128711B401B50188118316081749
:100740008312081B341483168812831288168316AA
:100750008812831288120310B40D831608178312AF
:10076000081B341483168812831288168316881285
:10077000831288120310B40D831608178312081B06
:1007800034148316881283128816831688128312F3
:1007900088120310B40D831608178312081B341433
:1007A0008316881283128816831688128312881281
:1007B0000310B40D831608178312081B3414831614
:1007C00088128312881683168812831288120310E7
:1007D000B40D831608178312081B3414831688126D
:1007E0008312881683168812831288120310B40DA0
:1007F000831608178312081B341483168812831279
:10080000881683168812831288120310B40D83167B
:1008100008178312081B3414831688128312881653
:100820008316881283128812831608178312081BF6
:100830003514831688128312881683168812831241
:1008400088120310B50D831608178312081B351480
:1008500083168812831288168316881283128812D0
:100860000310B50D831608178312081B3514831661
:100870008812831288168316881283128812031036
:10088000B50D831608178312081B351483168812BA
:100890008312881683168812831288120310B50DEE
:1008A000831608178312081B3514831688128312C7
:1008B000881683168812831288120310B50D8316CA
:1008C00008178312081B35148316881283128816A2
:1008D00083168812831288120310B50D8316081729
:1008E0008312081B35148316881283128816831608
:1008F0008812831288120310B50D8316081783120D
:10090000081B3514831688128312881683168812E2
:10091000831288128815891009110034B01230082A
:1009200083168700831287120830F8000000000049
:100930000000F817AD2CF8138316C40C83120318AB
:100940008716031C87127817AD2C7813F80B9C2C94
:100950000000000000008716AD2C2F308400840BAF
:10096000AF2CF81B9B2C781BA52C8A150A124D2A3C
:100970000830F80000000430F700F70BBD2C061318
:10098000831606130630F7008312F70BC52C831667
:10099000CB0D83128613031CD02C8316861783126B
:1009A0000318D52C83168613831283160617831219
:1009B000061FD82CF80BBA2C0430F700F70BDE2CEE
:1009C000061383160613000086170630F7008312FD
:1009D000F70BE82C0630F700F70BEC2C8316061704
:1009E0008312061FF12CF8010630F700F70BF62CE6
:1009F000861B781406138316061383128613831638
:100A0000861383120034F701F801831636080310A9
:100A10003718F707F70CF80CB718F707F70CF80CAE
:100A20003719F707F70CF80CB719F707F70CF80C9C
:100A3000371AF707F70CF80CB71AF707F70CF80C8A
:100A4000371BF707F70CF80CB71BF707F70CF80C78
:100A500083128A110A12452E83162B10A030AE0085
:100A60007C30AF00A101A001A030B0000230B10085
:100A70003C30B2008312B011300883168700831215
:100A8000871183163208F7003C307702031D4A2D88
:100A900083124C2D8312592D301130088316870094
:100AA000831207113011300883168700831207154F
:100AB0005A2D5A2D8316B30183128316310833023F
:100AC000031C642D8312B12D83128316B501B4016A
:100AD000831283163408073C0318702D8312A62D49
:100AE000831203108316B50D3208F7003C307702ED
:100AF000031D7C2D83127E2D83128D2D3016300820
:100B0000831687008312071A892D831636108312E5
:100B10008C2D8316361483128D2D83163618922D44
:100B20008312962D8312831635148312B011300868
:100B30008316870083128715B0113008831687004B
:100B4000831287118316B40A8312692D8316300825
:100B5000330784003508800083128316B30A83129A
:100B60005D2D7C08831620020319B82D8312C12D38
:100B700083127D0883162102031DC02D8312F82ED7
:100B800083128316AA08031DC72D8312F82E831221
:100B90008316AD01831283162D08013C0318D22D54
:100BA0008312F82E83128316AC01831283162C084D
:100BB000073C0318DD2D8312F42E83120030291B0D
:100BC0000130F800F8080319EB2D8A1500208A116E
:100BD00083162B14831283162E082D078400000819
:100BE000B000F7002C08F800031DF82D8312FD2D2E
:100BF00083120310F70CF80BF92D00307718013031
:100C00008316B1002F082D0784000008B200F700FA
:100C10002C08F800031D0E2E8312132E83120310CE
:100C2000F70CF80B0F2E00307718013083163102C5
:100C3000031D1C2E8312F02E831283162D08013CF7
:100C4000F7000310F70DF70DF70DF830F7057708EB
:100C50002C07B2002E082D0784000008B300F7000F
:100C60002C08F800031D362E83123B2E831203102E
:100C7000F70CF80B372E0030771C01308316B500C7
:100C8000B600FF30B7008312032D78088316B60034
:100C90003208B7003608B80083128316B901370846
:100CA0003038B900BA003808BB00831283163C10F4
:100CB0008312C01A6C2E4008F700F70C770C03392A
:100CC0008316BD0083124008033983163D02031DBD
:100CD0006B2E83126E2E831200306F2E0130F800BF
:100CE000F808031DA72E83163A08BD003B08BE0076
:100CF00083124008F700F70C770C0339F700031054
:100D0000F70D7708383E840083163D088000831273
:100D10004008F700F70C770C0339F7000310F70DC4
:100D20007708013E383E840083163E088000831217
:100D30004008043E0C39F700F33040057704C0004A
:100D4000C0128A1500208A1183163C1483120030C9
:100D500083163C180130F80083127808F80803194C
:100D6000F02E83162E082D0784000008B000F7002F
:100D70002C08F800031DBE2E8312C32E831203100D
:100D8000F70CF80BBF2E771CD92E83162F082D07D2
:100D900084000130F7002C08F800031DD12E8312C7
:100DA000D62E83120310F70DF80BD22E770880048D
:100DB000ED2E83162F082D0784000130F7002C0834
:100DC000F800031DE52E8312EA2E83120310F70D9F
:100DD000F80BE62E7708FF3A800583162B14831252
:100DE0008316AC0A8312D62D8316AD0A8312CB2D3F
:100DF000003083162B180130F800831200340B13D7
:100E00008B138B1B002F2121003083168900831246
:100E1000891009118316AA01831283162A08073C38
:100E20000318142F8312382F83128316AC016430F9
:100E3000AB0083123010300883168700831207142A
:100E4000640083162B08BF00831229216400301030
:100E50003008831687008312071083162B08BF0003
:100E600083122921640064008316AA0A83120D2FBD
:100E7000F3304005C000FC304005C0004012C016F1
:100E80001F083839C1389F00053083169F00F130A4
:100E90008600AA01831283162A08013C0318522FE8
:100EA00083125D2F8312673083162A078400800126
:100EB00083128316AA0A83124B2FFF308316A200D7
:100EC0000130A300FF308312B6000730B70083164D
:100ED0008C128312E0306405E400E0306305E30027
:100EE000E4126417311583168C1683128316AA0137
:100EF00083122C258316011783120B168923C03009
:100F00008B04B110FF30B2000730B300272221213B
:100F10008A150A12ED2C311A912FB11A912F003037
:100F2000922F0130F800F80803199F2FAF08031D16
:100F30009D2F2E08143C03189F2FAF01AE012E08E1
:100F40002F04031DEE2F0830A9060030A919013027
:100F50008316AB00AC0083128316AC080319B22FC2
:100F60008312B52F83120710B62F071430103008E4
:100F70008316870083120030E41A0130F800F80865
:100F80000319CD2FAF013230AE00AB0A2B080A3C5B
:100F90000318CC2FAB01E412EE2FA918D32FAF0109
:100FA0001430AE00EE2F2A08F7000319E02F0130AD
:100FB00077020319E52F023077020319E92FED2F8D
:100FC0001330AF008830AE00EE2FAF01FF30AE001F
:100FD000EE2FAF013230AE00EE2FEE2F2E080319A8
:100FE000AF03AE038A150A12052DA930840000084C
:100FF0000319FF2FFD2F00000000800BFB2F003492
:1010000083163D1083120030291B0130F800F808C8
:101010000319652B6400891009112913D030831638
:1010200088008312B011300883168700831287115D
:10103000B401B5018811831608178312081B3414F4
:1010400083168812831288168316881283128812D8
:101050000310B40D831608178312081B341483166B
:10106000881283128816831688128312881203103E
:10107000B40D831608178312081B341483168812C4
:101080008312881683168812831288120310B40DF7
:10109000831608178312081B3414831688128312D0
:1010A000881683168812831288120310B40D8316D3
:1010B00008178312081B34148316881283128816AB
:1010C00083168812831288120310B40D8316081732
:1010D0008312081B34148316881283128816831611
:1010E0008812831288120310B40D83160817831216
:1010F000081B3414831688128312881683168812EC
:10110000831288120310B40D831608178312081B6C
:101110003414831688128312881683168812831259
:101120008812831608178312081B35148316881239
:101130008312881683168812831288120310B50D45
:10114000831608178312081B35148316881283121E
:10115000881683168812831288120310B50D831621
:1011600008178312081B35148316881283128816F9
:1011700083168812831288120310B50D8316081780
:101180008312081B3514831688128312881683165F
:101190008812831288120310B50D83160817831264
:1011A000081B35148316881283128816831688123A
:1011B000831288120310B50D831608178312081BBB
:1011C00035148316881283128816831688128312A8
:1011D00088120310B50D831608178312081B3514E7
:1011E0008316881283128816831688128312881237
:1011F0000310B50D831608178312081B35148316C8
:101200008812831288168316881283128812881512
:10121000340FE0293508F7000A307702031929292D
:10122000013077020319292906307702031938297A
:101230000330770203194329FF3077020319482945
:1012400005307702031951290430770203195A290E
:101250008129A9138A113C218A15F8080319372915
:101260003208B6003308B7008A1127228A15DF2911
:101270008A113C218A153208B6003308B7008A115A
:1012800027228A15DF298A1121218A154629DF297B
:10129000B110FF30B2000730B3008A1127228A153F
:1012A000DF29B110FF30B2000730B3008A112722C6
:1012B0008A15DF29A91F762903308316BF00831200
:1012C0008A1129218A150030291B0130F800F808FD
:1012D00003196D298A1189238A15B110FF30B200D4
:1012E0000730B3008A1127228A1580298A113C21F0
:1012F0008A153208B6003308B7008A1127228A15EA
:10130000DF293508F0398316BE00F700E030770298
:10131000031D8C2983129429D0307702031D922952
:101320008312BF298312DD29350801398316BF00D6
:101330007E0801393F02031D9F298312B5298312BC
:101340008316220FA429A6298312B3298312831698
:101350002308013C0319AE298312B32983123508EF
:10136000FE00B111B429B115B629B111B110FF3089
:10137000B2000830B3008A1127228A15DE29350809
:1013800001398316BF00240801393F02031DCA2911
:101390008312D3298312B110FF30B200B3018A1136
:1013A00027228A15DD298A113C218A153208B600C8
:1013B0003308B7008A1127228A15DE29DF29612B1D
:1013C0008A113C218A153208B6003308B7008A1109
:1013D00027228A1534088039003A031D612B34080E
:1013E0008316BF00831235088316C000831283164C
:1013F0003F080F39C1003F087039C200F700303094
:101400007702031D052A8312242A7708031D0A2A5E
:101410008312302A10307702031D102A83123D2ACE
:1014200020307702031D162A8312512A403077029A
:10143000031D1C2A8312AE2A50307702031D222A74
:101440008312432B83125D2BA91C2F2A831641087C
:10145000C3004008C40083128A1187208A155E2BBE
:10146000A91C3C2A83164008C30083128316430834
:1014700083120C1E392A99005E2BA91C502A831650
:101480004008C30083120B138B138B1B442A831653
:101490004308C40083128A118E2C8A15C0308B0435
:1014A0005E2BA91CAD2A83164108C3004008C40066
:1014B000831283164308C5004408C60083128316AE
:1014C00086170430F7008312F70B642A8316061779
:1014D0000630F7008312F70B6B2A861383168613E8
:1014E0000430F7008312F70B732A061383160613D2
:1014F0000310450CC800C80C3F30C8050310C80DC8
:1015000048085038CA00CB0083128A11B8248A15C3
:10151000831645080339C900CB0083128A11B82409
:101520008A1583164608CB0083128A11B8248A15BF
:1015300083168613000006178312061F9D2A0430A7
:10154000F700F70BA12A00000000000083168617A1
:101550000430F7008312F70BAB2A5E2B83163F088B
:10156000C3004008C400831283164308F7004030CC
:101570007702031DBD2A8312F52A43307702031D2B
:10158000C32A8312F62A41307702031DC92A831227
:10159000F72A46307702031DCF2A8312F82A4230F9
:1015A0007702031DD52A8312F92A47307702031DDB
:1015B000DB2A8312FA2A48307702031DE12A8312BC
:1015C000FC2A4A307702031DE72A8312002B493098
:1015D0007702031DED2A8312022B4B307702031D85
:1015E000F32A83123A2B8312412B422B422B422B9C
:1015F000422B422BA910422BA914B1123112422BBB
:101600003117422B83164408C50083124208C20AD0
:101610008316C600C7004508C800831264008316FD
:101620004708831203178D008F01831603134808A0
:10163000831203178C0083168C130C15831203136B
:101640000B08F7008B135530831603178D00AA3053
:101650008D008C1483120313831603178C1C332BF9
:10166000831203132C2B0C117708831203138B04A2
:101670006400422BB11A402B311A402BA918412B80
:10168000402B422B5E2B83163F08C3004008C4004A
:10169000831283164308F70050307702031D522B44
:1016A0008312542B83125B2B831644088312AA00E7
:1016B000AF01AE015C2B5C2B5E2B5E2B8316A40A64
:1016C000831283163D14831203280030A91A0130B7
:1016D000F800F8080319812BA91B812B64008A11DB
:1016E0003C218A15F8080319812B89100911320849
:1016F000B6003308B7008A1127228A1583163D14D5
:101700008312003083163D180130F8008312003434
:1017100001308316A900831283162A10831206084B
:101720008316AC00F130AC05AB01831283162B0895
:10173000073C03189D2B8312A02C83126400031016
:1017400083162B0DF7002C04831286000000000086
:101750000000000000008316AD01831283162D08DF
:10176000013C0318B52B83129C2C83120030291BDB
:101770000130F800F8080319C82B0020F808031DF1
:10178000C52B83162A108312C82B83162A148312A2
:10179000031083162D0DF700F70DF70DF830F70540
:1017A00077082B07B00003102D0DF700F70DF70D8C
:1017B000F830F7057708F80083121F08C739780456
:1017C0009F003130F700F70BE32B000000001F15DE
:1017D0001F19E82B1E088316AE0003102D0DF7000D
:1017E000F70DF70DF830F7057708F80083121F089A
:1017F000C73978049F003130F700F70BFD2B00004C
:1018000000001F151F19022C1E088316AF002E089A
:101810002F0203190D2C8312982C83126730831624
:10182000300784002E080002031D182C8312982C08
:1018300083128316A908031D1F2C8312912C831277
:1018400083163008B1002E08B20083128316B3014C
:1018500031082038B300BA003208BB008312831667
:101860003C108312C01A452C4008F700F70C770C87
:1018700003398316BD0083124008033983163D02E5
:10188000031D442C8312472C83120030482C013056
:10189000F800F808031D7E2C83163A08BD003B08AB
:1018A000BE0083124008F700F70C770C0339F700ED
:1018B0000310F70D7708383E840083163D0880003A
:1018C00083124008F700F70C770C0339F700031078
:1018D000F70D7708013E383E840083163E088000ED
:1018E00083124008043E0C39F700F33040057704BA
:1018F000C000C012002083163C14831200308316EF
:101900003C180130F80083127808F8080319902C6D
:1019100067308316300784002E0880002A14831253
:10192000982C67308316300784002E0880008312BD
:101930008316AD0A8312AE2B8316AB0A8312962B45
:10194000003083162A180130F800831278088A15AF
:101950000A12F92C84011F3083059F308400073060
:101960008000A80109308316990022309800903039
:10197000831298002914AA01AB01AC01AD01A9148E
:101980002915AE01AF01A9112912FF30B000A91627
:101990002913A9133110B110C2010930831699001F
:1019A00022309800903083129800B01230088316CD
:1019B000870083128716FE018316A4018312B111DA
:1019C0003112B11231138316A501A60183128316B9
:1019D000A701A80183128A11FF2E8A158316A80A6F
:1019E0008312A91C002D311A002DB11A002D2915C2
:1019F000882B01308316AA0083128A112C258A15A0
:101A00002911002064008A118B2F8A15A9180F2D27
:101A1000FA308316A90083128A11F5278A15311C22
:101A2000732D0030A91A0130F800F80803191A2D97
:101A3000A91F582D83162708033C0319212D831253
:101A40003A2D8312891009118A1189238A15FF30D2
:101A50008316A90083128A11F5278A15B110FF3069
:101A6000B2000730B3008A1127228A158316A70116
:101A70008312572D89100911A91C4B2D1030F70026
:101A8000F70B402D0000311C4A2DB11C492D0915C2
:101A90004A2D8914542D01308316BF0083128A11F8
:101AA00029218A15311889148316A70A8312722DE9
:101AB0002C080319AD03AC032C082D04031D722D53
:101AC000A918632D622D8A1189238A15B110FF3060
:101AD000B2000730B3008A1127228A150130AD0009
:101AE000F430AC007A2D8316A70101308312AD00CB
:0A1AF000F430AC003114EE2C63005A
:02400E00763FFB
:00000001FF
;PIC16F877
