:1000000010308A0000280000FF00030E8312031343
:10001000A1000A08A0008A010408A2007708A30032
:100020007808A4007908A5007A08A6007B08A70034
:10003000831383120B1E1E288B1837288C308400E4
:10004000801E24288C1A3A28220884002308F700EE
:100050002408F8002508F9002608FA002708FB0004
:1000600020088A00210E8300FF0E7F0E09008A11EE
:100070000A1251288A110A1278280A108A100A11C5
:100080008207383401340C340A108A100A118207AE
:10009000573461346934743420342E342E342E3481
:1000A0000034891009112916A91529138B108A11FA
:1000B0000A1224288C1E5A281808A8001A08F800CA
:1000C000A81C64281812181600008A110A12792830
:1000D00083168C128312E0306405E400E03063057F
:1000E000E300E4126417421483168C168312003462
:1000F0005A2878088316E6008312641B8D2864084A
:100100001F398316E700831263081F3983166702BD
:10011000031D8C2883128F28831200309028013011
:10012000F800F808031996286820E41664081F39B7
:10013000433E840083166608800083126408013EF3
:100140001F39F700E03064057704E40064138C1273
:100150008A110A122428CF30840000080319BD2810
:100160000630F800F701F70BB328F80BB2287B3004
:10017000F700F70BB928800BB0280034AD112D081B
:1001800083168700831287118316081083120814C0
:100190008316B301831283163308073C0318D22851
:1001A0008312F12883128316B11FD8288312DB280B
:1001B00083128810DC288814831688100310B10D70
:1001C0008312AD112D088316870083128715AD1198
:1001D0002D0883168700831287118316B30A8312B2
:1001E000CB288316B2080319F7288312FA28831242
:1001F0008810FB28881483168810081083120810B2
:10020000003408308316C9007708CA0083128316A9
:1002100086170630F7008312F70B0C298316061792
:100220008312061F1129861B0314861F0310F80D65
:100230000430F700F70B1A298316061383120613EE
:100240008316C90B2429262983120729861706300D
:10025000F7008312F70B2A29861383164A08031D19
:10026000861383120000831606178312061F362991
:100270000430F700F70B3A290613831606130630ED
:10028000F7008312F70B4229861383168613831215
:100290000034AF17F70101218316861300000617FB
:1002A0008312061F51290430F700F70B552900006F
:1002B00000000000831686170430F7008312F70B46
:1002C0005F2900340830F80000000430F700F70B15
:1002D00067290613831606130630F7008312F70BFF
:1002E0006F298316CF0D83128613031C7A29831678
:1002F0008617831203187F298316861383128316A9
:1003000006178312061F8229F80B64290430F700B0
:10031000F70B88290613831606130000861706308C
:10032000F7008312F70B92290630F700F70B962996
:10033000831606178312061F9B29F8010630F70063
:10034000F70BA029861B7814061383160613831255
:100350008613831686138312003430088316C9006F
:10036000831283164908CC00831203108316CC0D28
:100370004C08A038F800831278088316CB00CC0014
:10038000CD01831283164E1086170430F7008312B6
:10039000F70BC829831606170630F7008312F70BF0
:1003A000CF298613831686130430F7008312F70BC8
:1003B000D7290613831606134C08CF008312622137
:1003C0007808003A0319E82983164E108312EB29A6
:1003D00083164E148312640083164E1CF129831277
:1003E0000C2A831283168613000006178312061F39
:1003F000F7290430F700F70BFB290000000000008C
:10040000831686170430F7008312F70B052A013094
:100410008316CF008312AB2083164E18112A831245
:100420002E2A83128316CD08031D182A83122E2A22
:10043000831283168613000006178312061F1E2AD6
:100440000430F700F70B222A00000000000083169A
:1004500086170430F7008312F70B2C2A003083161E
:100460004E180130F8008312F808031D3B2A83164A
:100470004A1083123E2A83164A14831200308316D0
:100480004A180130F8008312F808031D4B2A83161E
:10049000481083124E2A83164814831200308316A4
:1004A00048180130C900831283164A1083122F089E
:1004B0007F398316CB00CF00831262217808003A7F
:1004C0000319662A83164A108312692A83164A146E
:1004D000831283164A186E2A83127F2A83122E08EB
:1004E0008316CF00831262217808003A03197C2A10
:1004F00083164A1083127F2A83164A14831200300F
:1005000083164A180130F8008312831649087804CC
:10051000003A03198D2A8312922A831283164810F7
:100520008312952A831648148312003083164818C4
:100530000130F80083120034AE0FAB2A2F08013EC1
:100540007F39F70080302F057704AF002F087F39FF
:10055000003A0319B00A00340030AF1B0130831693
:10056000C50083122F087F39003A031DBA2AAE084E
:100570000319BC2A0030BD2A013083164504003A15
:100580000319C42A8312C72A8312AF13C82AAF17CC
:10059000AF1F2C2B4921AD21F808031DD32A831648
:1005A00044108312D62A8316441483120030831613
:1005B00044180130C500831230088316C600831228
:1005C000831686170430F7008312F70BE52A83168B
:1005D00006170630F7008312F70BEC2A86138316F2
:1005E00086130430F7008312F70BF42A06138316E0
:1005F00006134608CC00831203108316CC0D4C085A
:10060000A038F8008312780801388316C800CF009C
:10061000831262217808003A0319122B83164710BF
:100620008312152B83164714831200308316471844
:100630000130F8008312831645087805003A031943
:10064000232B8312282B83128316441083122B2B07
:100650008316441483122F2B83164414831283169B
:100660004418342B8312662B83129C222F087F3967
:10067000003A031D3E2BAE080319482B831643088E
:1006800084000130F7008312012178088000662B76
:10069000831643088400F701831201217808800043
:1006A000AF1783168613000006178312061F562BFA
:1006B0000430F700F70B5A2B0000000000008316EF
:1006C00086170430F7008312F70B642BAF138316E1
:1006D00044186D2B8312AF17831600304418013075
:1006E000F80083120034831640108312A913FF30E0
:1006F000B3000130B400C21C892B83162208831278
:10070000B300831623088312B400831640148312A7
:10071000AF2C0030641B0130F800F808031DCC2B0F
:10072000640083168C12831263081F39433E8400D1
:1007300000088316C20083126308013E1F39F700C8
:10074000E03063057704E30064081F398316C300B3
:10075000831263081F39831643020319B12B8312D6
:10076000B32B8312641783164208F80083127808AB
:100770008316C1008C168312421483164108F800B8
:1007800083127808B400340FC62BC72BA917B30106
:10079000831640148312AF2C421D312C2919312CA1
:1007A00034308316C1008312831642108312311C29
:1007B000002C3108F700770C0739003A0319FE2B9B
:1007C00083164108C3008312AC22F808031DEC2BEA
:1007D000831642108312EF2B831642148312831662
:1007E0004218F42B8312FD2B83123108023E0E397E
:1007F000F700F13031057704B100FF2B31101E2CCA
:1008000083164108C3008312AC22F808031D0C2C88
:100810008316421083120F2C831642148312831600
:100820004218142C83121E2C83123108023E0E39FA
:10083000F700F13031057704B10031140030831630
:1008400042180130F8008312F80803192A2C4030AE
:10085000B3002D2C4530B30042118316401483128F
:10086000712CC21D422C2919422C0130F800780845
:10087000F8080319412CC2114430B3008316401408
:100880008312712C421E712C34308316C1008312E6
:1008900083164108C200831232088316C3008312F4
:1008A00083164308831203178D008F0183168C1360
:1008B0000C1483120C08F8000313831642088400FA
:1008C000780880008312B20A3208F800F808031D85
:1008D0006B2C42126C2C42164930B3008316401424
:1008E00083128316401C762C8312AF2C83120030A7
:1008F000C11A0130F800F808031DAF2C4108033974
:10090000F7000310F70D7708393E84000008B300A4
:1009100041080339F7000310F70D7708013E393E0F
:1009200084000008B4004108013E0339F700FC30A0
:1009300041057704C100F700F70C770C03398316E3
:10094000C100831241080339831641020319AA2CFE
:100950008312AC2C8312C116831640148312330801
:100960008316A200831234088316A3004018BA2C01
:100970008312BD2C8312C21CFE0AC21000308316E3
:1009800040180130F80083120034A911291389108E
:100990000911E03083168800831288128815B31776
:1009A000B31FD72C0816831608128312DB2C0812EB
:1009B00083160812831283168812831288168316F0
:1009C0008812831288120310B30DB31FEC2C081683
:1009D000831608128312F02C081283160812831251
:1009E000831688128312881683168812831288123F
:1009F0000310B30DB31F012D0816831608128312BE
:100A0000052D08128316081283128316881283128A
:100A1000881683168812831288120310B30DB31F31
:100A2000162D08168316081283121A2D0812831623
:100A3000081283128316881283128816831688126E
:100A4000831288120310B30DB31F2B2D08168316C3
:100A5000081283122F2D0812831608128312831690
:100A60008812831288168316881283128812031044
:100A7000B30DB31F402D0816831608128312442DA0
:100A8000081283160812831283168812831288169E
:100A900083168812831288120310B30DB31F552DCD
:100AA0000816831608128312592D0812831608128D
:100AB0008312831688128312881683168812831273
:100AC00088120310B30DB31F6A2D0816831608127F
:100AD00083126E2D08128316081283128316881251
:100AE000831288168316881283128812B41F7D2DF4
:100AF0000816831608128312812D08128316081215
:100B00008312831688128312881683168812831222
:100B100088120310B40DB41F922D08168316081204
:100B20008312962D081283160812831283168812D8
:100B30008312881683168812831288120310B40D4C
:100B4000B41FA72D0816831608128312AB2D0812A6
:100B5000831608128312831688128312881683164E
:100B60008812831288120310B40DB41FBC2D08160E
:100B7000831608128312C02D0812831608128312DE
:100B8000831688128312881683168812831288129D
:100B90000310B40DB41FD12D08168316081283124A
:100BA000D52D081283160812831283168812831219
:100BB000881683168812831288120310B40DB41F8E
:100BC000E62D0816831608128312EA2D08128316E2
:100BD00008128312831688128312881683168812CD
:100BE000831288120310B40DB41FFB2D0816831650
:100BF00008128312FF2D081283160812831283161F
:100C000088128312881683168812831288120310A2
:100C1000B40DB41F102E0816831608128312142E5A
:100C200008128316081283128316881283128816FC
:100C30008316881283128812D0308316880083129C
:100C4000A916A91F252E0915262E8914003408304F
:100C50008316C8004408073C031C302E8312342E30
:100C600083128316C801831266088316C700831295
:100C700065088316C60045083F3C031C412E8312BD
:100C80005C2E8312831648084407C900FA0101301C
:100C9000F9004908F700031D4F2E8312552E8312C9
:100CA0000310F90DFA0DF70B502E79088316C604C0
:100CB0007A08C70483127A2E831648084407C900AD
:100CC000FA010130F9004908F700031D692E83126B
:100CD0006F2E83120310F90DFA0DF70B6A2E7908A7
:100CE000FF3AF700FF30FA0677088316C6057A0840
:100CF000C70583126508831646020319812E8312E5
:100D00008A2E8312660883164702031D892E8312DA
:100D1000ED2E8312831647088312E60083164608D9
:100D20008312E50065308316C9000230CA004230E4
:100D3000CB008312AD112D08831687008312871113
:100D40008316CC01831283164A084C02031CAA2E78
:100D50008312DF2E8312831649084C078400000893
:100D6000CE00CD01831283164D08073C0318BA2E1E
:100D70008312DB2E831283164E088039003A031942
:100D8000C32E8312C62E83128810C72E8814031018
:100D90008316CE0D8312AD112D08831687008312A2
:100DA0008715AD112D0883168700831287118316CE
:100DB000CD0A8312B32E8316CC0A8312A32E831678
:100DC0004B08F70042307702031DE82E8312EA2E0B
:100DD0008312ED2E08110815ED2E00342912AD11E5
:100DE0002D0883168700831287112912D0308316AD
:100DF00088008312AD112D08831687008312871196
:100E0000B501B6018811831608178312081B351423
:100E1000831688128312881683168812831288120A
:100E20000310B50D831608178312081B351483169B
:100E30008812831288168316881283128812031070
:100E4000B50D831608178312081B351483168812F4
:100E50008312881683168812831288120310B50D28
:100E6000831608178312081B351483168812831201
:100E7000881683168812831288120310B50D831604
:100E800008178312081B35148316881283128816DC
:100E900083168812831288120310B50D8316081763
:100EA0008312081B35148316881283128816831642
:100EB0008812831288120310B50D83160817831247
:100EC000081B35148316881283128816831688121D
:100ED000831288120310B50D831608178312081B9E
:100EE000351483168812831288168316881283128B
:100EF0008812831608178312081B3614831688126B
:100F00008312881683168812831288120310B60D76
:100F1000831608178312081B36148316881283124F
:100F2000881683168812831288120310B60D831652
:100F300008178312081B361483168812831288162A
:100F400083168812831288120310B60D83160817B1
:100F50008312081B36148316881283128816831690
:100F60008812831288120310B60D83160817831295
:100F7000081B36148316881283128816831688126B
:100F8000831288120310B60D831608178312081BEC
:100F900036148316881283128816831688128312D9
:100FA00088120310B60D831608178312081B361417
:100FB0008316881283128816831688128312881269
:100FC0000310B60D831608178312081B36148316F8
:100FD0008812831288168316881283128812881545
:100FE000891009110034AA30840000080319FD2F6C
:100FF000FB2F00000000800BF92F8A110A16AA2B84
:10100000AD122D0883168700831287120830F8006E
:10101000000000000000F8171F28F8138316C50C05
:10102000831203188716031C871278171F2878135A
:10103000F80B0E2800000000000087161F282F3034
:101040008400840B2128F81B0D28781B17288A158B
:101050000A12742A83163E1083120030291A0130B6
:10106000F800F8080319112C6400891009112912DD
:10107000D030831688008312AD112D0883168700A7
:1010800083128711B501B6018811831608178312E0
:10109000081B35148316881283128816831688124B
:1010A000831288120310B50D831608178312081BCC
:1010B00035148316881283128816831688128312B9
:1010C00088120310B50D831608178312081B3514F8
:1010D0008316881283128816831688128312881248
:1010E0000310B50D831608178312081B35148316D9
:1010F00088128312881683168812831288120310AE
:10110000B50D831608178312081B35148316881231
:101110008312881683168812831288120310B50D65
:10112000831608178312081B35148316881283123E
:10113000881683168812831288120310B50D831641
:1011400008178312081B3514831688128312881619
:1011500083168812831288120310B50D83160817A0
:101160008312081B3514831688128312881683167F
:10117000881283128812831608178312081B3614EC
:101180008316881283128816831688128312881297
:101190000310B60D831608178312081B3614831626
:1011A00088128312881683168812831288120310FD
:1011B000B60D831608178312081B3614831688127F
:1011C0008312881683168812831288120310B60DB4
:1011D000831608178312081B36148316881283128D
:1011E000881683168812831288120310B60D831690
:1011F00008178312081B3614831688128312881668
:1012000083168812831288120310B60D83160817EE
:101210008312081B361483168812831288168316CD
:101220008812831288120310B60D831608178312D2
:10123000081B3614831688128312881683168812A8
:10124000831288120310B60D831608178312081B29
:101250003614831688128312881683168812831216
:1012600088128815350F142A3608F70001307702E6
:1012700003194F290630770203195E2903307702DC
:1012800003196929FF30770203197C290530770299
:10129000031985290430770203198E29B529A9126B
:1012A0008A1173238A15F80803195D293308B700DA
:1012B0003408B8008A11C5248A15132A8A117323A9
:1012C0008A153308B7003408B8008A11C5248A1576
:1012D000132AE601E5018316C401FF30C50083121D
:1012E0008A1127268A158316C401C50183128A1123
:1012F00027268A157A29132AA913FF30B30007304D
:10130000B4008A11C5248A15132AA913FF30B3002B
:101310000730B4008A11C5248A15132AA91EAA29E8
:1013200003308316CF0083128A11AB208A15003058
:10133000291A0130F800F8080319A1298A11EE26AC
:101340008A15A913FF30B3000730B4008A11C524F1
:101350008A15B4298A1173238A153308B700340813
:10136000B8008A11C5248A15132A3608F039831665
:10137000BF00F700E0307702031DC0298312C8299F
:10138000D0307702031DC6298312F3298312112A54
:10139000360801398316C0007E0801394002031D5A
:1013A000D3298312E92983128316220FD829DA2937
:1013B0008312E729831283162308013C0319E229CB
:1013C0008312E72983123608FE00C210E829C214EE
:1013D000EA29C210A913FF30B3000830B4008A1103
:1013E000C5248A15122A360801398316C00024083C
:1013F00001394002031DFE298312072A8312A91313
:10140000FF30B300B4018A11C5248A15112A8A114C
:1014100073238A153308B7003408B8008A11C5242D
:101420008A15122A132A0D2C8A1173238A15330860
:10143000B7003408B8008A11C5248A1535088039E8
:10144000003A031D0D2C35088316C00083123608A0
:101450008316C1008312831640080F39C20040086A
:101460007039C300F70030307702031D392A831228
:10147000522A7708031D3E2A83125C2A1030770215
:10148000031D442A8312672A20307702031D4A2A4B
:101490008312772A40307702031D502A8312D32A01
:1014A0008312092C83164208C4004108C500831228
:1014B0008A1127268A150A2C83164108C400831234
:1014C0008316440883120C1E632A99000A2C831683
:1014D0004108C40083120B138B138B1B6C2A8316D9
:1014E0004408C50083120028C0308B040A2C8316E0
:1014F0004208C4004108C500831283164408C60090
:101500004508C7008312831686170430F70083123C
:10151000F70B882A831606170630F7008312F70B9D
:101520008F2A8613831686130430F7008312F70B75
:10153000972A0613831606130310460CC900C90C1C
:101540003F30C9050310C90D49085038CB00CF0002
:1015500083128A1162218A15831646080339CA004C
:10156000CF0083128A1162218A1583164708CF00A3
:1015700083128A1162218A158316861300000617CA
:101580008312061FC12A0430F700F70BC52A00009A
:1015900000000000831686170430F7008312F70B53
:1015A000CF2AAF170A2C83164008C4004108C50093
:1015B00083120B138B138B1BDA2A83164408F70054
:1015C00040307702031DE62A8312182B433077023E
:1015D000031DEC2A8312972B41307702031DF22A58
:1015E0008312AE2B46307702031DF82A8312BD2BDF
:1015F00042307702031DFE2A8312BF2B4730770249
:10160000031D042B8312C12B48307702031D0A2BC4
:101610008312C62B4A307702031D102B8312CB2B6B
:1016200049307702031D162B8312CD2B8312052C14
:1016300083164508C60083128316471000308312B4
:10164000AF1B01308316C80083122E083F39003AC1
:1016500003192C2B00302D2B013083164804003A3F
:101660000319342B8312372B8312AF13382BAF1788
:10167000AF1F4B2B8A1149218A158A11AD218A157A
:10168000F808031D472B8316471083124A2B831635
:10169000471483124E2B8316471483128316471860
:1016A000532B83128A2B831283164608CF00831292
:1016B0008A1162218A157808003A0319632B831670
:1016C00047108312662B831647148312831647181C
:1016D0006B2B83128A2B83128A119C228A152E0867
:1016E0003F39003A031D8A2B831686130000061724
:1016F0008312061F792B0430F700F70B7D2B0000B7
:1017000000000000831686170430F7008312F70BE1
:10171000872BAF17AF1383164718912B8312AF1780
:101720008316003047180130F8008312062C831608
:101730008613000006178312061F9C2B0430F70047
:10174000F70BA02B00000000000083168617043062
:10175000F7008312F70BAA2BAF17062CAE018030CF
:101760002F05AF00AF17B0018A1149218A1531103A
:10177000F1303105B100B201062C4215062CC2151C
:10178000062CA91083168C128312062CA91483161A
:101790008C168312062C4216062C83164508C600AA
:1017A00083123208B20A8316C700C8004608C9006F
:1017B0008312640083164808831203178D008F017B
:1017C000831603134908831203178C0083168C13A6
:1017D0000C15831203130B08F7008B135530831677
:1017E00003178D00AA308D008C1483120313831607
:1017F00003178C1CFE2B83120313F72B0C11770895
:10180000831203138B046400062C062CC0308B0457
:101810000A2C0A2C8316A40A831283163E14831200
:101820002D280030A9190130F800F80803192D2CD3
:10183000A91A2D2C64008A1173238A15F80803193C
:101840002D2C891009113308B7003408B8008A110B
:10185000C5248A1583163E148312003083163E1861
:101860000130F80083120034F701F80183163708BD
:1018700003103818F707F70CF80CB818F707F70C2F
:10188000F80C3819F707F70CF80CB819F707F70C2C
:10189000F80C381AF707F70CF80CB81AF707F70C1A
:1018A000F80C381BF707F70CF80CB81BF707F70C08
:1018B000F80C83128A110A169B2A8316250826041F
:1018C0000319642C8312952C83122030C206003039
:1018D000C21A01308316AC00AD0083128316AD0826
:1018E0000319742C8312772C83120710782C071499
:1018F0002D102D088316870083120030E41A013062
:10190000F800F80803198F2C8316A601FF30A500F4
:101910008312AA0A2A080A3C031CAA01952C133038
:101920008316A6008830A5008312831625080319A4
:0C193000A603A50383128A110A167E2B61
:1020000084011F3083059F30840007308000A801C1
:10201000093083169900223098009030831298007E
:102020002914AA01AB01AC01A9102911FF30AD00A0
:10203000B201A9152912A9122913A913093083166F
:10204000990022309800903083129800AD122D082C
:102050008316870083128716E501E601FE018316C9
:10206000A4018312C2104211C21142128316A501AB
:10207000A6018312C21242138316A701A80183127C
:102080000B138B138B1B412819308316CF0083123F
:102090000A12AB200A168316AC01831283162C0891
:1020A000023C03185528831269288312383083169E
:1020B000B100B20183120A12BE200A160230831642
:1020C000CF0083120A12AB200A168316AC0A8312C1
:1020D0004E288316AB01831283162B08023C03188B
:1020E000732883128D28831283162B0883120A12F9
:1020F0003D200A168316AD00B100B20183120A1208
:10210000BE200A1602308316CF0083120A12AB20BB
:102110000A168316AB0A83126C288316AA0183124F
:1021200083162A08073C0318972883120B29831269
:1021300083162A0883120A1244200A168316AB005B
:10214000AC00831283162C08F7000C307702031DB5
:10215000AB288312B9280A307702031DB1288312F5
:10216000C92808307702031DB7288312ED2883128F
:10217000F62801308316B100B20183120A12BE2084
:102180000A1602308316CF0083120A12AB200A16F9
:10219000002901308316AD000230AE008312831691
:1021A0002E0BD328D5288312D7288312DC28403061
:1021B0008316AF008312DF288316AF01831201302C
:1021C00083162D02AF072F088038B000B100B2018E
:1021D00083120A12BE200A16002910308316B1009D
:1021E000B20183120A12BE200A16002983162C0897
:1021F000B1000130B20083120A12BE200A16002973
:1022000002308316CF0083120A12AB200A168316FF
:10221000AA0A83129028003083168900831289103D
:1022200009118316AB01831283162B08073C031890
:102230001B298312432983128316AD016430AC003D
:1022400083122D102D088316870083120714640053
:1022500083162C08CF0083120A12AB200A166400E2
:102260002D102D08831687008312071083162C0863
:10227000CF0083120A12AB200A1664006400831692
:10228000AB0A83121429F3304105C100FC3041052B
:10229000C1004112C1161F083839C1389F000530EE
:1022A00083169F00F1308600AB01831283162B0842
:1022B000013C03185D298312682983126730831655
:1022C0002B078400800183128316AB0A83125629E0
:1022D000FF308316A2000130A300FF308312B70045
:1022E0000730B8000B080B058B13A0000A126820FA
:1022F0000A1620088B048316AB01831283162C1058
:10230000A030AF007C30B000A101A001A030B1002E
:102310000230B2003C30B3008312AD112D08831699
:1023200087008312871183163308F7003C30770249
:10233000031D9C2983129E298312AB292D112D0880
:1023400083168700831207112D112D08831687002D
:1023500083120715AC29AC298316B40183128316A6
:1023600032083402031CB6298312032A831283160F
:10237000B601B501831283163508073C0318C2293C
:102380008312F829831203108316B60D3308F70061
:102390003C307702031DCE298312D0298312DF2916
:1023A0002D162D08831687008312071ADB29831642
:1023B00037108312DE29831637148312DF29831620
:1023C0003718E4298312E8298312831636148312FE
:1023D000AD112D088316870083128715AD112D08C6
:1023E00083168700831287118316B50A8312BB29CF
:1023F0008316310834078400360880008312831660
:10240000B40A8312AF297C088316200203190A2A12
:102410008312132A83127D0883162102031D122AB8
:102420008312522B83128316AB08031D192A8312C1
:10243000522B83128316AE01831283162E08013CA1
:102440000318242A8312522B83128316AD018312A0
:1024500083162D08073C03182F2A83124E2B831254
:102460000030291A0130F800F80803193F2A0A122F
:102470008A152A200A168A1183162C1483128316B1
:102480002F082E0784000008B100F7002D08F8007F
:10249000031D4C2A8312512A83120310F70CF80BE8
:1024A0004D2A0030771801308316B20030082E070D
:1024B00084000008B300F7002D08F800031D622A0D
:1024C0008312672A83120310F70CF80B632A00307B
:1024D0007718013083163202031D702A83124A2BAB
:1024E000831283162E08013CF7000310F70DF70D39
:1024F000F70DF830F70577082D07B3002F082E07E2
:1025000084000008B400F7002D08F800031D8A2A93
:1025100083128F2A83120310F70CF80B8B2A0030DA
:10252000771C01308316B600B700FF30B800831265
:102530000A128A15342C0A168A1178088316B700F5
:102540003308B8003708B90083128316BA01380877
:102550003038BA00BB003908BC00831283163D1026
:102560008312C11AC42A4108F700F70C770C03390B
:102570008316BE0083124108033983163E02031DF1
:10258000C32A8312C62A83120030C72A0130F800FA
:10259000F808031D012B83163B08BE003C08BF0052
:1025A00083124108F700F70C770C0339F70003108A
:1025B000F70D7708393E840083163E0880008312A9
:1025C0004108F700F70C770C0339F7000310F70DFB
:1025D0007708013E393E840083163F08800083124D
:1025E0004108043E0C39F700F33041057704C1007F
:1025F000C1120A128A152A200A168A1183163D145E
:102600008312003083163D180130F80083127808D9
:10261000F80803194A2B83162F082E078400000898
:10262000B100F7002D08F800031D182B83121D2B95
:1026300083120310F70CF80B192B771C332B83161E
:1026400030082E0784000130F7002D08F800031D24
:102650002B2B8312302B83120310F70DF80B2C2B2E
:1026600077088004472B831630082E07840001303A
:10267000F7002D08F800031D3F2B8312442B831213
:102680000310F70DF80B402B7708FF3A80058316EF
:102690002C1483128316AD0A8312282A8316AE0ADD
:1026A00083121D2A003083162C180130F800831283
:1026B0008316011783120B160A12EE260A16C03073
:1026C0008B04A913FF30B3000730B4000A12C524ED
:1026D0000A16AE0180302F05AF00AF17B0010A1205
:1026E00049210A163110F1303105B100B2018316CB
:1026F000A80A640083120A128A155D2C0A168A1130
:102700000A128A152A200A168A1102308316CF006F
:1027100083120A12AB200A16291FE02B0030A919D8
:102720000130F800F8080319972BA91EC72B831650
:102730002708023C03199E2B8312B72B83128910A2
:1027400009110A12EE260A16FF308316AA00831218
:102750000A12F32F0A16A913FF30B3000730B40092
:102760000A12C5240A168316A7018312C62B8910E4
:1027700009111030F700F70BBB2B0000A91FC22B6B
:102780000915C32B89148316A70A8312DF2B2B0884
:102790000319AC03AB032B082C04031DDF2B0A1217
:1027A000EE260A16A913FF30B3000730B4000A1250
:1027B000C5240A1642151330AC008830AB00E72B55
:1027C0008316A70113308312AC008830AB002917A1
:0427D000772B630000
:02400E00460F5B
:00000001FF
;PIC16F877
