:1000000000308A001E28000023080C1E05289900D5
:10001000003423308400000803191B280630F80040
:10002000F701F70B1128F80B10287B30F700F70BBE
:100030001728800B0E288A110A123F2884011F30CE
:1000400083059F30840007308000A00109308316AB
:10005000990022309800903083129800A101B030AE
:10006000A3000420A301042021087039A200A300EA
:100070000420A10A0430A200FA30A3000928A20B30
:060080003C282F2863005C
:02400E00460F5B
:00000001FF
;PIC16F877
