:1000000000308A001C2A00003630840000080319E2
:1000100016280630F800F701F70B0C28F80B0B2810
:100020007B30F700F70B1228800B09280034AD0154
:100030002D08073C031C3728AF016430AE002010A8
:100040002008831687008312071464002E08B60068
:1000500004206400201020088316870083120710F4
:100060002E08B600042064006400AD0A18288A1126
:100070000A12302A25082604031D5A280230A40635
:100080000030A4180130AD00AE00AE08031D4A28B0
:1000900007104B28071420102008831687008312AE
:1000A000241C5628A601FF30A5005A281330A600AC
:1000B0008830A50025080319A603A5038A110A1292
:1000C000322A0830B0007708B10083168617063050
:1000D000F7008312F70B6A28831606178312061F90
:1000E0006F28861B0314861F0310F80D0430F700D9
:1000F000F70B78288316061383120613B00B6528B6
:10010000831686170630F7008312F70B85288613AF
:10011000310803198E288316861383120000831674
:1001200006178312061F92280430F700F70B962853
:100130000613831606130630F7008312F70B9E286A
:1001400086138316861383128A110A12AA28A2170D
:10015000F701612883168613000006178312061F15
:10016000AF280430F700F70BB328000000000000B0
:10017000831686170430F7008312F70BBD2800346E
:100180000830F80000000430F700F70BC52806130C
:10019000831606130630F7008312F70BCD28B60D31
:1001A0008613031CD6288316861783120318DB28B0
:1001B000831686138312831606178312061FDE2802
:1001C000F80BC2280430F700F70BE4280613831657
:1001D0000613000086170630F7008312F70BEE288F
:1001E0000630F700F70BF228831606178312061F56
:1001F000F728F8010630F700F70BFC28861B781467
:10020000061383160613831286138316861383122E
:1002100000342E140030A21B0130AF0021083F39FA
:10022000003A031915290030162901302F04003A2D
:10023000031D1C29A2131D29A217A21FCE29A72026
:100240002308B0003008B3000310B30D3308A03802
:10025000F8007808B200B300B40135108316861791
:100260000430F7008312F70B332983160617063084
:10027000F7008312F70B3A2986138316861304308E
:10028000F7008312F70B4229061383160613831215
:100290003308B600C0207808003A031951293510F8
:1002A00052293514640035186D2983168613000011
:1002B00006178312061F5A290430F700F70B5E2930
:1002C000000000000000831686170430F700831238
:1002D000F70B68290130B6000420351C8729B408C3
:1002E0000319872983168613000006178312061F39
:1002F00077290430F700F70B7B290000000000008D
:10030000831686170430F7008312F70B8529003017
:1003100035180130F800F808031D90293110912993
:100320003114003031180130F800F808031D9A2903
:100330002F109B292F1400302F180130B0003110DE
:1003400022087F39B200B600C0207808003A0319AD
:10035000AB293110AC293114311CB8292108B60061
:10036000C0207808003A0319B7293110B829311490
:10037000003031180130F80030087804003A031DCD
:10038000C3292F10C4292F1400302F180130F80072
:10039000F808031DCD292E10CE292E140130F800A7
:1003A0000F2A2E1C082A2D08B600C0207808003A13
:1003B0000319DC292E10DD292E142E1C082AA10F6A
:1003C000ED292208013E7F39F700803022057704AD
:1003D000A2007F39003A0319A30A21083F39003AE5
:1003E000031D082A83168613000006178312061FB2
:1003F000F7290430F700F70BFB290000000000008C
:10040000831686170430F7008312F70B052AA2170C
:10041000A2132E1CA21700302E180130F8008A11EA
:100420000A12412AA10180302205A200A217A301CD
:10043000A7208A110A12532A84011F3083059F3096
:10044000840007308000FF30A0002410A501A60121
:10045000A410A701A801A901AA01AB012C1017281B
:1004600064003A282C184F2AAB08031D4F2AAA080B
:10047000031D4F2A29087F3C031C4F2A2708AD0083
:100480000929F80803194D2AA80A0319A90A03190A
:10049000AA0A0319AB0AA70A4E2A2C14532A2410BD
:0A04A0002C1C2414122A302A6300D9
:02400E007E3FF3
:00000001FF
;PIC16F877
