:1000000000308A005F2A000037308400000803199E
:1000100016280630F800F701F70B0C28F80B0B2810
:100020007B30F700F70B1228800B09280034AE0153
:100030002E08073C031C3728B0016430AF002010A5
:100040002008831687008312071464002F08B70066
:1000500004206400201020088316870083120710F4
:100060002F08B700042064006400AE0A18288A1123
:100070000A12732A25082604031D5A280230A406F2
:100080000030A4180130AE00AF00AF08031D4A28AD
:1000900007104B28071420102008831687008312AE
:1000A000241C5628A601FF30A5005A281330A600AC
:1000B0008830A50025080319A603A5038A110A1292
:1000C000752A0830B2007708B30083168617063009
:1000D000F7008312F70B6A28831606178312061F90
:1000E0006F28861B0314861F0310F80D0430F700D9
:1000F000F70B78288316061383120613B20B6528B4
:10010000831686170630F7008312F70B85288613AF
:10011000330803198E288316861383120000831672
:1001200006178312061F92280430F700F70B962853
:100130000613831606130630F7008312F70B9E286A
:1001400086138316861383120034A217F7016120E9
:1001500083168613000006178312061FAD2804308D
:10016000F700F70BB1280000000000008316861787
:100170000430F7008312F70BBB2800340830F80076
:1001800000000430F700F70BC3280613831606138C
:100190000630F7008312F70BCB28B70D8613031C2C
:1001A000D4288316861783120318D928831686133A
:1001B0008312831606178312061FDC28F80BC0284B
:1001C0000430F700F70BE22806138316061300002D
:1001D00086170630F7008312F70BEC280630F7007D
:1001E000F70BF028831606178312061FF528F8016F
:1001F0000630F700F70BFA28861B781406138316CF
:10020000061383128613831686138312003400307C
:10021000A21B0130B00022087F39003A031D1329C8
:10022000A108031915290030162901303004003ABD
:10023000031D1C29A2131D29A217A21F0E2AA520E7
:100240002308B1003108B4000310B40D3408A038FD
:10025000F8007808B300B400B5013610831686178D
:100260000430F7008312F70B332983160617063084
:10027000F7008312F70B3A2986138316861304308E
:10028000F7008312F70B4229061383160613831215
:100290003408B700BE207808003A031951293610F7
:1002A00052293614640036186D298316861300000F
:1002B00006178312061F5A290430F700F70B5E2930
:1002C000000000000000831686170430F700831238
:1002D000F70B68290130B7000420361C8729B508C0
:1002E0000319872983168613000006178312061F39
:1002F00077290430F700F70B7B290000000000008D
:10030000831686170430F7008312F70B8529003017
:1003100036180130F800F808031D90293210912991
:100320003214003032180130F800F808031D9A2901
:1003300030109B293014003030180130B1003210D9
:1003400022087F39B300B700BE207808003A0319AD
:10035000AB293210AC293214321CB8292108B7005D
:10036000BE207808003A0319B7293210B829321490
:10037000003032180130F80031087804003A031DCB
:10038000C3293010C4293014003030180130F8006F
:10039000F808031DCD292F10CE292F1400302F1857
:1003A0000130B0002308B100831686170430F7002F
:1003B0008312F70BD929831606170630F70083122C
:1003C000F70BE0298613831686130430F700831297
:1003D000F70BE82906138316061383123108B400BD
:1003E0000310B40D3408A038F80078080138B300C1
:1003F000B700BE207808003A0319002A3210012AFB
:100400003214003032180130F80030087805003A14
:10041000031D0C2A2F100D2A2F140F2A2F142F1C06
:100420004B2AA10F1F2A2208013E7F39F700803096
:1004300022057704A2007F39003A0319A30A220893
:100440007F39003A031D272AA10803192F2A2E08F5
:1004500084000130F7006120780880004B2A2E08C4
:100460008400F701612078088000A21783168613A4
:10047000000006178312061F3B2A0430F700F70B13
:100480003F2A000000000000831686170430F700A2
:100490008312F70B492AA2132F1CA21700302F1822
:1004A0000130F8008A110A12842AA1018030220545
:1004B000A200A217A301A5208A110A129A2A840178
:1004C0001F3083059F30840007308000FF30A0007C
:1004D0002410A501A601A410A701A801A901AA0141
:1004E000AB012D10172864003A282D18962AAB0866
:1004F000031D962AAA08031D962A29087F3C031C7F
:10050000962A2C30AE000729F8080319942A2708E8
:100510002C02031D2D14A80A0319A90A0319AA0AFB
:100520000319AB0AA70A952A2D149A2A24102D1C08
:080530002414552A732A63000C
:02400E007E3FF3
:00000001FF
;PIC16F877
